{
  "contractName": "HoneyFarm",
  "abi": [
    {
      "inputs": [
        {
          "internalType": "contract IERC20",
          "name": "_hsf",
          "type": "address"
        },
        {
          "internalType": "uint256[9]",
          "name": "_parameters",
          "type": "uint256[9]"
        }
      ],
      "stateMutability": "nonpayable",
      "type": "constructor"
    },
    {
      "anonymous": false,
      "inputs": [
        {
          "indexed": true,
          "internalType": "address",
          "name": "owner",
          "type": "address"
        },
        {
          "indexed": true,
          "internalType": "address",
          "name": "approved",
          "type": "address"
        },
        {
          "indexed": true,
          "internalType": "uint256",
          "name": "tokenId",
          "type": "uint256"
        }
      ],
      "name": "Approval",
      "type": "event"
    },
    {
      "anonymous": false,
      "inputs": [
        {
          "indexed": true,
          "internalType": "address",
          "name": "owner",
          "type": "address"
        },
        {
          "indexed": true,
          "internalType": "address",
          "name": "operator",
          "type": "address"
        },
        {
          "indexed": false,
          "internalType": "bool",
          "name": "approved",
          "type": "bool"
        }
      ],
      "name": "ApprovalForAll",
      "type": "event"
    },
    {
      "anonymous": false,
      "inputs": [
        {
          "indexed": true,
          "internalType": "address",
          "name": "downgrader",
          "type": "address"
        },
        {
          "indexed": true,
          "internalType": "uint256",
          "name": "depositId",
          "type": "uint256"
        },
        {
          "indexed": false,
          "internalType": "uint256",
          "name": "downgradeReward",
          "type": "uint256"
        }
      ],
      "name": "DepositDowngraded",
      "type": "event"
    },
    {
      "anonymous": false,
      "inputs": [],
      "name": "Disabled",
      "type": "event"
    },
    {
      "anonymous": false,
      "inputs": [
        {
          "indexed": true,
          "internalType": "address",
          "name": "previousOwner",
          "type": "address"
        },
        {
          "indexed": true,
          "internalType": "address",
          "name": "newOwner",
          "type": "address"
        }
      ],
      "name": "OwnershipTransferred",
      "type": "event"
    },
    {
      "anonymous": false,
      "inputs": [
        {
          "indexed": true,
          "internalType": "contract IERC20",
          "name": "poolToken",
          "type": "address"
        },
        {
          "indexed": false,
          "internalType": "uint256",
          "name": "allocation",
          "type": "uint256"
        }
      ],
      "name": "PoolAdded",
      "type": "event"
    },
    {
      "anonymous": false,
      "inputs": [
        {
          "indexed": true,
          "internalType": "contract IERC20",
          "name": "poolToken",
          "type": "address"
        },
        {
          "indexed": false,
          "internalType": "uint256",
          "name": "allocation",
          "type": "uint256"
        }
      ],
      "name": "PoolUpdated",
      "type": "event"
    },
    {
      "anonymous": false,
      "inputs": [
        {
          "indexed": true,
          "internalType": "address",
          "name": "referrer",
          "type": "address"
        },
        {
          "indexed": false,
          "internalType": "uint256",
          "name": "depositId",
          "type": "uint256"
        }
      ],
      "name": "Referred",
      "type": "event"
    },
    {
      "anonymous": false,
      "inputs": [
        {
          "indexed": true,
          "internalType": "uint256",
          "name": "depositId",
          "type": "uint256"
        },
        {
          "indexed": false,
          "internalType": "uint256",
          "name": "rewardAmount",
          "type": "uint256"
        }
      ],
      "name": "RewardsWithdraw",
      "type": "event"
    },
    {
      "anonymous": false,
      "inputs": [
        {
          "indexed": true,
          "internalType": "address",
          "name": "from",
          "type": "address"
        },
        {
          "indexed": true,
          "internalType": "address",
          "name": "to",
          "type": "address"
        },
        {
          "indexed": true,
          "internalType": "uint256",
          "name": "tokenId",
          "type": "uint256"
        }
      ],
      "name": "Transfer",
      "type": "event"
    },
    {
      "inputs": [],
      "name": "SCALE",
      "outputs": [
        {
          "internalType": "uint256",
          "name": "",
          "type": "uint256"
        }
      ],
      "stateMutability": "view",
      "type": "function"
    },
    {
      "inputs": [
        {
          "internalType": "address",
          "name": "to",
          "type": "address"
        },
        {
          "internalType": "uint256",
          "name": "tokenId",
          "type": "uint256"
        }
      ],
      "name": "approve",
      "outputs": [],
      "stateMutability": "nonpayable",
      "type": "function"
    },
    {
      "inputs": [
        {
          "internalType": "address",
          "name": "owner",
          "type": "address"
        }
      ],
      "name": "balanceOf",
      "outputs": [
        {
          "internalType": "uint256",
          "name": "",
          "type": "uint256"
        }
      ],
      "stateMutability": "view",
      "type": "function"
    },
    {
      "inputs": [],
      "name": "baseURI",
      "outputs": [
        {
          "internalType": "string",
          "name": "",
          "type": "string"
        }
      ],
      "stateMutability": "view",
      "type": "function"
    },
    {
      "inputs": [],
      "name": "contractDisabledAt",
      "outputs": [
        {
          "internalType": "uint256",
          "name": "",
          "type": "uint256"
        }
      ],
      "stateMutability": "view",
      "type": "function"
    },
    {
      "inputs": [
        {
          "internalType": "uint256",
          "name": "",
          "type": "uint256"
        }
      ],
      "name": "depositInfo",
      "outputs": [
        {
          "internalType": "uint256",
          "name": "amount",
          "type": "uint256"
        },
        {
          "internalType": "uint256",
          "name": "rewardDebt",
          "type": "uint256"
        },
        {
          "internalType": "uint256",
          "name": "unlockTime",
          "type": "uint256"
        },
        {
          "internalType": "uint256",
          "name": "rewardShare",
          "type": "uint256"
        },
        {
          "internalType": "uint256",
          "name": "setRewards",
          "type": "uint256"
        },
        {
          "internalType": "contract IERC20",
          "name": "pool",
          "type": "address"
        },
        {
          "internalType": "address",
          "name": "referrer",
          "type": "address"
        }
      ],
      "stateMutability": "view",
      "type": "function"
    },
    {
      "inputs": [],
      "name": "distributionSlope",
      "outputs": [
        {
          "internalType": "uint256",
          "name": "",
          "type": "uint256"
        }
      ],
      "stateMutability": "view",
      "type": "function"
    },
    {
      "inputs": [],
      "name": "downgradeFee",
      "outputs": [
        {
          "internalType": "uint256",
          "name": "",
          "type": "uint256"
        }
      ],
      "stateMutability": "view",
      "type": "function"
    },
    {
      "inputs": [],
      "name": "endTime",
      "outputs": [
        {
          "internalType": "uint256",
          "name": "",
          "type": "uint256"
        }
      ],
      "stateMutability": "view",
      "type": "function"
    },
    {
      "inputs": [
        {
          "internalType": "uint256",
          "name": "tokenId",
          "type": "uint256"
        }
      ],
      "name": "getApproved",
      "outputs": [
        {
          "internalType": "address",
          "name": "",
          "type": "address"
        }
      ],
      "stateMutability": "view",
      "type": "function"
    },
    {
      "inputs": [],
      "name": "hsf",
      "outputs": [
        {
          "internalType": "contract IERC20",
          "name": "",
          "type": "address"
        }
      ],
      "stateMutability": "view",
      "type": "function"
    },
    {
      "inputs": [
        {
          "internalType": "address",
          "name": "owner",
          "type": "address"
        },
        {
          "internalType": "address",
          "name": "operator",
          "type": "address"
        }
      ],
      "name": "isApprovedForAll",
      "outputs": [
        {
          "internalType": "bool",
          "name": "",
          "type": "bool"
        }
      ],
      "stateMutability": "view",
      "type": "function"
    },
    {
      "inputs": [],
      "name": "maxTimeLock",
      "outputs": [
        {
          "internalType": "uint256",
          "name": "",
          "type": "uint256"
        }
      ],
      "stateMutability": "view",
      "type": "function"
    },
    {
      "inputs": [],
      "name": "minTimeLock",
      "outputs": [
        {
          "internalType": "uint256",
          "name": "",
          "type": "uint256"
        }
      ],
      "stateMutability": "view",
      "type": "function"
    },
    {
      "inputs": [],
      "name": "name",
      "outputs": [
        {
          "internalType": "string",
          "name": "",
          "type": "string"
        }
      ],
      "stateMutability": "view",
      "type": "function"
    },
    {
      "inputs": [],
      "name": "owner",
      "outputs": [
        {
          "internalType": "address",
          "name": "",
          "type": "address"
        }
      ],
      "stateMutability": "view",
      "type": "function"
    },
    {
      "inputs": [
        {
          "internalType": "uint256",
          "name": "tokenId",
          "type": "uint256"
        }
      ],
      "name": "ownerOf",
      "outputs": [
        {
          "internalType": "address",
          "name": "",
          "type": "address"
        }
      ],
      "stateMutability": "view",
      "type": "function"
    },
    {
      "inputs": [
        {
          "internalType": "contract IERC20",
          "name": "",
          "type": "address"
        }
      ],
      "name": "poolInfo",
      "outputs": [
        {
          "internalType": "uint256",
          "name": "allocation",
          "type": "uint256"
        },
        {
          "internalType": "uint256",
          "name": "lastRewardTimestamp",
          "type": "uint256"
        },
        {
          "internalType": "uint256",
          "name": "accHsfPerShare",
          "type": "uint256"
        },
        {
          "internalType": "uint256",
          "name": "totalShares",
          "type": "uint256"
        }
      ],
      "stateMutability": "view",
      "type": "function"
    },
    {
      "inputs": [],
      "name": "referralRewarder",
      "outputs": [
        {
          "internalType": "contract ReferralRewarder",
          "name": "",
          "type": "address"
        }
      ],
      "stateMutability": "view",
      "type": "function"
    },
    {
      "inputs": [],
      "name": "renounceOwnership",
      "outputs": [],
      "stateMutability": "nonpayable",
      "type": "function"
    },
    {
      "inputs": [
        {
          "internalType": "address",
          "name": "from",
          "type": "address"
        },
        {
          "internalType": "address",
          "name": "to",
          "type": "address"
        },
        {
          "internalType": "uint256",
          "name": "tokenId",
          "type": "uint256"
        }
      ],
      "name": "safeTransferFrom",
      "outputs": [],
      "stateMutability": "nonpayable",
      "type": "function"
    },
    {
      "inputs": [
        {
          "internalType": "address",
          "name": "from",
          "type": "address"
        },
        {
          "internalType": "address",
          "name": "to",
          "type": "address"
        },
        {
          "internalType": "uint256",
          "name": "tokenId",
          "type": "uint256"
        },
        {
          "internalType": "bytes",
          "name": "_data",
          "type": "bytes"
        }
      ],
      "name": "safeTransferFrom",
      "outputs": [],
      "stateMutability": "nonpayable",
      "type": "function"
    },
    {
      "inputs": [
        {
          "internalType": "address",
          "name": "operator",
          "type": "address"
        },
        {
          "internalType": "bool",
          "name": "approved",
          "type": "bool"
        }
      ],
      "name": "setApprovalForAll",
      "outputs": [],
      "stateMutability": "nonpayable",
      "type": "function"
    },
    {
      "inputs": [],
      "name": "startDistribution",
      "outputs": [
        {
          "internalType": "uint256",
          "name": "",
          "type": "uint256"
        }
      ],
      "stateMutability": "view",
      "type": "function"
    },
    {
      "inputs": [],
      "name": "startTime",
      "outputs": [
        {
          "internalType": "uint256",
          "name": "",
          "type": "uint256"
        }
      ],
      "stateMutability": "view",
      "type": "function"
    },
    {
      "inputs": [
        {
          "internalType": "bytes4",
          "name": "interfaceId",
          "type": "bytes4"
        }
      ],
      "name": "supportsInterface",
      "outputs": [
        {
          "internalType": "bool",
          "name": "",
          "type": "bool"
        }
      ],
      "stateMutability": "view",
      "type": "function"
    },
    {
      "inputs": [],
      "name": "symbol",
      "outputs": [
        {
          "internalType": "string",
          "name": "",
          "type": "string"
        }
      ],
      "stateMutability": "view",
      "type": "function"
    },
    {
      "inputs": [],
      "name": "timeLockConstant",
      "outputs": [
        {
          "internalType": "uint256",
          "name": "",
          "type": "uint256"
        }
      ],
      "stateMutability": "view",
      "type": "function"
    },
    {
      "inputs": [],
      "name": "timeLockMultiplier",
      "outputs": [
        {
          "internalType": "uint256",
          "name": "",
          "type": "uint256"
        }
      ],
      "stateMutability": "view",
      "type": "function"
    },
    {
      "inputs": [
        {
          "internalType": "uint256",
          "name": "index",
          "type": "uint256"
        }
      ],
      "name": "tokenByIndex",
      "outputs": [
        {
          "internalType": "uint256",
          "name": "",
          "type": "uint256"
        }
      ],
      "stateMutability": "view",
      "type": "function"
    },
    {
      "inputs": [
        {
          "internalType": "address",
          "name": "owner",
          "type": "address"
        },
        {
          "internalType": "uint256",
          "name": "index",
          "type": "uint256"
        }
      ],
      "name": "tokenOfOwnerByIndex",
      "outputs": [
        {
          "internalType": "uint256",
          "name": "",
          "type": "uint256"
        }
      ],
      "stateMutability": "view",
      "type": "function"
    },
    {
      "inputs": [
        {
          "internalType": "uint256",
          "name": "tokenId",
          "type": "uint256"
        }
      ],
      "name": "tokenURI",
      "outputs": [
        {
          "internalType": "string",
          "name": "",
          "type": "string"
        }
      ],
      "stateMutability": "view",
      "type": "function"
    },
    {
      "inputs": [],
      "name": "totalAllocationPoints",
      "outputs": [
        {
          "internalType": "uint256",
          "name": "",
          "type": "uint256"
        }
      ],
      "stateMutability": "view",
      "type": "function"
    },
    {
      "inputs": [],
      "name": "totalDeposits",
      "outputs": [
        {
          "internalType": "uint256",
          "name": "",
          "type": "uint256"
        }
      ],
      "stateMutability": "view",
      "type": "function"
    },
    {
      "inputs": [],
      "name": "totalSupply",
      "outputs": [
        {
          "internalType": "uint256",
          "name": "",
          "type": "uint256"
        }
      ],
      "stateMutability": "view",
      "type": "function"
    },
    {
      "inputs": [
        {
          "internalType": "address",
          "name": "from",
          "type": "address"
        },
        {
          "internalType": "address",
          "name": "to",
          "type": "address"
        },
        {
          "internalType": "uint256",
          "name": "tokenId",
          "type": "uint256"
        }
      ],
      "name": "transferFrom",
      "outputs": [],
      "stateMutability": "nonpayable",
      "type": "function"
    },
    {
      "inputs": [
        {
          "internalType": "address",
          "name": "newOwner",
          "type": "address"
        }
      ],
      "name": "transferOwnership",
      "outputs": [],
      "stateMutability": "nonpayable",
      "type": "function"
    },
    {
      "inputs": [],
      "name": "poolLength",
      "outputs": [
        {
          "internalType": "uint256",
          "name": "",
          "type": "uint256"
        }
      ],
      "stateMutability": "view",
      "type": "function"
    },
    {
      "inputs": [
        {
          "internalType": "uint256",
          "name": "_index",
          "type": "uint256"
        }
      ],
      "name": "getPoolByIndex",
      "outputs": [
        {
          "internalType": "contract IERC20",
          "name": "poolToken",
          "type": "address"
        },
        {
          "internalType": "uint256",
          "name": "allocation",
          "type": "uint256"
        },
        {
          "internalType": "uint256",
          "name": "lastRewardTimestamp",
          "type": "uint256"
        },
        {
          "internalType": "uint256",
          "name": "accHsfPerShare",
          "type": "uint256"
        },
        {
          "internalType": "uint256",
          "name": "totalShares",
          "type": "uint256"
        }
      ],
      "stateMutability": "view",
      "type": "function"
    },
    {
      "inputs": [
        {
          "internalType": "string",
          "name": "baseURI_",
          "type": "string"
        }
      ],
      "name": "setBaseURI",
      "outputs": [],
      "stateMutability": "nonpayable",
      "type": "function"
    },
    {
      "inputs": [
        {
          "internalType": "address",
          "name": "_tokenRecipient",
          "type": "address"
        }
      ],
      "name": "disableContract",
      "outputs": [],
      "stateMutability": "nonpayable",
      "type": "function"
    },
    {
      "inputs": [
        {
          "internalType": "contract IERC20",
          "name": "_lpToken",
          "type": "address"
        },
        {
          "internalType": "uint256",
          "name": "_allocation",
          "type": "uint256"
        }
      ],
      "name": "add",
      "outputs": [],
      "stateMutability": "nonpayable",
      "type": "function"
    },
    {
      "inputs": [
        {
          "internalType": "contract IERC20",
          "name": "_poolToken",
          "type": "address"
        },
        {
          "internalType": "uint256",
          "name": "_allocation",
          "type": "uint256"
        }
      ],
      "name": "set",
      "outputs": [],
      "stateMutability": "nonpayable",
      "type": "function"
    },
    {
      "inputs": [
        {
          "internalType": "uint256",
          "name": "_from",
          "type": "uint256"
        },
        {
          "internalType": "uint256",
          "name": "_to",
          "type": "uint256"
        }
      ],
      "name": "getDistribution",
      "outputs": [
        {
          "internalType": "uint256",
          "name": "",
          "type": "uint256"
        }
      ],
      "stateMutability": "view",
      "type": "function"
    },
    {
      "inputs": [
        {
          "internalType": "uint256",
          "name": "_unlockTime",
          "type": "uint256"
        }
      ],
      "name": "getTimeMultiple",
      "outputs": [
        {
          "internalType": "uint256",
          "name": "",
          "type": "uint256"
        }
      ],
      "stateMutability": "view",
      "type": "function"
    },
    {
      "inputs": [
        {
          "internalType": "uint256",
          "name": "_depositId",
          "type": "uint256"
        }
      ],
      "name": "pendingHsf",
      "outputs": [
        {
          "internalType": "uint256",
          "name": "",
          "type": "uint256"
        }
      ],
      "stateMutability": "view",
      "type": "function"
    },
    {
      "inputs": [
        {
          "internalType": "contract IERC20",
          "name": "_poolToken",
          "type": "address"
        },
        {
          "internalType": "uint256",
          "name": "_amount",
          "type": "uint256"
        },
        {
          "internalType": "uint256",
          "name": "_unlockTime",
          "type": "uint256"
        },
        {
          "internalType": "address",
          "name": "_referrer",
          "type": "address"
        }
      ],
      "name": "createDeposit",
      "outputs": [],
      "stateMutability": "nonpayable",
      "type": "function"
    },
    {
      "inputs": [
        {
          "internalType": "uint256",
          "name": "_depositId",
          "type": "uint256"
        }
      ],
      "name": "closeDeposit",
      "outputs": [],
      "stateMutability": "nonpayable",
      "type": "function"
    },
    {
      "inputs": [
        {
          "internalType": "address",
          "name": "_referralRewarder",
          "type": "address"
        }
      ],
      "name": "setReferralRewarder",
      "outputs": [],
      "stateMutability": "nonpayable",
      "type": "function"
    },
    {
      "inputs": [
        {
          "internalType": "uint256",
          "name": "_depositId",
          "type": "uint256"
        }
      ],
      "name": "withdrawRewards",
      "outputs": [],
      "stateMutability": "nonpayable",
      "type": "function"
    },
    {
      "inputs": [
        {
          "internalType": "uint256",
          "name": "_depositId",
          "type": "uint256"
        }
      ],
      "name": "downgradeExpired",
      "outputs": [],
      "stateMutability": "nonpayable",
      "type": "function"
    },
    {
      "inputs": [],
      "name": "massUpdatePools",
      "outputs": [],
      "stateMutability": "nonpayable",
      "type": "function"
    },
    {
      "inputs": [
        {
          "internalType": "contract IERC20",
          "name": "_poolToken",
          "type": "address"
        }
      ],
      "name": "updatePool",
      "outputs": [],
      "stateMutability": "nonpayable",
      "type": "function"
    }
  ],
  "bytecode": "0x6101c06040523480156200001257600080fd5b5060405162004fb138038062004fb183398181016040526101408110156200003957600080fd5b508051604080518082018252601581527f486f6e65794661726d204465706f7369747320763100000000000000000000006020828101919091528251808401909352600383526212119160ea1b83820152929392909201919060006200009e620003a4565b600080546001600160a01b0319166001600160a01b0383169081178255604051929350917f8be0079c531659141344cd1fd0a4f28419497f9722a3daafe3b4186f6b6457e0908290a350620000fa6301ffc9a760e01b620003a8565b81516200010f90600790602085019062000912565b5080516200012590600890602084019062000912565b50620001386380ac58cd60e01b620003a8565b6200014a635b5e139f60e01b620003a8565b6200015c63780e9d6360e01b620003a8565b505080516020820151818111620001ba576040805162461bcd60e51b815260206004820152601c60248201527f48463a20656e6454696d65206265666f726520737461727454696d6500000000604482015290519081900360640190fd5b60408301516060808501519086901b6001600160601b031916608052610120849052610140839052620002056001600160a01b03871633308562000430602090811b62002af317901c565b6000620002a56200024862000231670de0b6b3a7640000856200049660201b62002b7b1790919060201c565b878703620004fa60201b62002bd51790919060201c565b62000291670de0b6b3a76400006200027d670de0b6b3a76400006200027d60028a620004fa60201b62002bd51790919060201c565b620004fa60201b62002bd51790919060201c565b6200055860201b62002c2e1790919060201c565b90506200030a620002cf670de0b6b3a7640000878703620004fa60201b62002bd51790919060201c565b62000291620002f585670de0b6b3a7640000620005c160201b62002c951790919060201c565b84620004fa60201b62002bd51790919060201c565b60a090815260c082905260808701519087015180821062000372576040805162461bcd60e51b815260206004820152601760248201527f48463a20696e76616c6964206c6f636b206c696d697473000000000000000000604482015290519081900360640190fd5b60e091825261010090815260c088015161016052908701516101805295909501516101a05250620009be945050505050565b3390565b6001600160e01b0319808216141562000408576040805162461bcd60e51b815260206004820152601c60248201527f4552433136353a20696e76616c696420696e7465726661636520696400000000604482015290519081900360640190fd5b6001600160e01b0319166000908152600160208190526040909120805460ff19169091179055565b604080516001600160a01b0380861660248301528416604482015260648082018490528251808303909101815260849091019091526020810180516001600160e01b039081166323b872dd60e01b17909152620004909186916200061f16565b50505050565b600082820183811015620004f1576040805162461bcd60e51b815260206004820152601b60248201527f536166654d6174683a206164646974696f6e206f766572666c6f770000000000604482015290519081900360640190fd5b90505b92915050565b6000826200050b57506000620004f4565b828202828482816200051957fe5b0414620004f15760405162461bcd60e51b815260040180806020018281038252602181526020018062004f666021913960400191505060405180910390fd5b6000808211620005af576040805162461bcd60e51b815260206004820152601a60248201527f536166654d6174683a206469766973696f6e206279207a65726f000000000000604482015290519081900360640190fd5b818381620005b957fe5b049392505050565b60008282111562000619576040805162461bcd60e51b815260206004820152601e60248201527f536166654d6174683a207375627472616374696f6e206f766572666c6f770000604482015290519081900360640190fd5b50900390565b60006200067b826040518060400160405280602081526020017f5361666545524332303a206c6f772d6c6576656c2063616c6c206661696c6564815250856001600160a01b0316620006e060201b62002cf2179092919060201c565b805190915015620006db578080602001905160208110156200069c57600080fd5b5051620006db5760405162461bcd60e51b815260040180806020018281038252602a81526020018062004f87602a913960400191505060405180910390fd5b505050565b6060620006f18484600085620006fb565b90505b9392505050565b6060824710156200073e5760405162461bcd60e51b815260040180806020018281038252602681526020018062004f406026913960400191505060405180910390fd5b620007498562000862565b6200079b576040805162461bcd60e51b815260206004820152601d60248201527f416464726573733a2063616c6c20746f206e6f6e2d636f6e7472616374000000604482015290519081900360640190fd5b600080866001600160a01b031685876040518082805190602001908083835b60208310620007db5780518252601f199092019160209182019101620007ba565b6001836020036101000a03801982511681845116808217855250505050505090500191505060006040518083038185875af1925050503d80600081146200083f576040519150601f19603f3d011682016040523d82523d6000602084013e62000844565b606091505b5090925090506200085782828662000868565b979650505050505050565b3b151590565b6060831562000879575081620006f4565b8251156200088a5782518084602001fd5b8160405162461bcd60e51b81526004018080602001828103825283818151815260200191508051906020019080838360005b83811015620008d6578181015183820152602001620008bc565b50505050905090810190601f168015620009045780820380516001836020036101000a031916815260200191505b509250505060405180910390fd5b828054600181600116156101000203166002900490600052602060002090601f0160209004810192826200094a576000855562000995565b82601f106200096557805160ff191683800117855562000995565b8280016001018555821562000995579182015b828111156200099557825182559160200191906001019062000978565b50620009a3929150620009a7565b5090565b5b80821115620009a35760008155600101620009a8565b60805160601c60a05160c05160e05161010051610120516101405161016051610180516101a0516144bd62000a8360003980610dcd52806130fa52508061103e5280611c8052508061164a5280611ca5525080610e65528061147a5280611dd052806123b052508061143952806114ba52806114e652806117ac5280612a2e525080612567528061270e5250806122e252806124f352508061154d52806126ea5250806115235280611fc552508061107d528061330f52806133c052506144bd6000f3fe608060405234801561001057600080fd5b50600436106103575760003560e01c806370a08231116101c8578063a154ce8211610104578063d83623dd116100a2578063e985e9c51161007c578063e985e9c514610a87578063eced552614610ab5578063f2fde38b14610abd578063f5d82b6b14610ae357610357565b8063d83623dd14610a6f578063e1cf73b914610a77578063e7f3fbde14610a7f57610357565b8063baf941d0116100de578063baf941d014610a08578063c87b56dd14610a10578063d00a818f14610a2d578063d7af3c8c14610a3557610357565b8063a154ce82146108ee578063a22cb46514610914578063b88d4fde1461094257610357565b8063825662ad116101715780639342c8f41161014b5780639342c8f41461086057806395d89b411461087d57806398783572146108855780639a7b5f11146108a257610357565b8063825662ad1461083357806383b24c521461083b5780638da5cb5b1461085857610357565b80637a46bd36116101a25780637a46bd36146107fd5780637b46c54f146108055780637d8820971461082b57610357565b806370a08231146107c7578063715018a6146107ed57806378e97925146107f557610357565b806338a91d0211610297578063630b5ba1116102405780636721d4ef1161021a5780636721d4ef146107425780636c0360eb146107655780636ce0c4b51461076d5780637091ce72146107bf57610357565b8063630b5ba1146107005780636352211e1461070857806364df19001461072557610357565b80634e4f4d3d116102715780634e4f4d3d146106175780634f6ccce71461063d57806355f804b31461065a57610357565b806338a91d02146105d157806342842e0e146105d957806344288f811461060f57610357565b80631be2055e116103045780632f745c59116102de5780632f745c5914610510578063317d7a2b1461053c5780633197cbb61461059d5780633825d828146105a557610357565b80631be2055e146104b557806323b872dd146104d2578063258fa5c81461050857610357565b8063081e3eda11610335578063081e3eda14610465578063095ea7b31461047f57806318160ddd146104ad57610357565b806301ffc9a71461035c57806306fdde03146103af578063081812fc1461042c575b600080fd5b61039b6004803603602081101561037257600080fd5b50357fffffffff0000000000000000000000000000000000000000000000000000000016610b0f565b604080519115158252519081900360200190f35b6103b7610b4a565b6040805160208082528351818301528351919283929083019185019080838360005b838110156103f15781810151838201526020016103d9565b50505050905090810190601f16801561041e5780820380516001836020036101000a031916815260200191505b509250505060405180910390f35b6104496004803603602081101561044257600080fd5b5035610be0565b604080516001600160a01b039092168252519081900360200190f35b61046d610c42565b60408051918252519081900360200190f35b6104ab6004803603604081101561049557600080fd5b506001600160a01b038135169060200135610c53565b005b61046d610d2e565b61046d600480360360208110156104cb57600080fd5b5035610d3a565b6104ab600480360360608110156104e857600080fd5b506001600160a01b03813581169160208101359091169060400135610d74565b61046d610dcb565b61046d6004803603604081101561052657600080fd5b506001600160a01b038135169060200135610def565b6105596004803603602081101561055257600080fd5b5035610e1a565b60408051978852602088019690965286860194909452606086019290925260808501526001600160a01b0390811660a08501521660c0830152519081900360e00190f35b61046d610e63565b6104ab600480360360408110156105bb57600080fd5b506001600160a01b038135169060200135610e87565b61046d61103c565b6104ab600480360360608110156105ef57600080fd5b506001600160a01b03813581169160208101359091169060400135611060565b61044961107b565b6104ab6004803603602081101561062d57600080fd5b50356001600160a01b031661109f565b61046d6004803603602081101561065357600080fd5b5035611275565b6104ab6004803603602081101561067057600080fd5b81019060208101813564010000000081111561068b57600080fd5b82018360208201111561069d57600080fd5b803590602001918460018302840111640100000000831117156106bf57600080fd5b91908080601f01602080910402602001604051908101604052809392919081815260200183838082843760009201919091525092955061128b945050505050565b6104ab61130b565b6104496004803603602081101561071e57600080fd5b5035611343565b6104ab6004803603602081101561073b57600080fd5b503561136b565b61046d6004803603604081101561075857600080fd5b5080359060200135611431565b6103b761159a565b61078a6004803603602081101561078357600080fd5b50356115fb565b604080516001600160a01b03909616865260208601949094528484019290925260608401526080830152519081900360a00190f35b61046d611648565b61046d600480360360208110156107dd57600080fd5b50356001600160a01b031661166c565b6104ab6116d4565b61046d6117aa565b61046d6117ce565b6104ab6004803603602081101561081b57600080fd5b50356001600160a01b03166117d4565b61046d611881565b610449611887565b6104ab6004803603602081101561085157600080fd5b5035611896565b610449611a7f565b6104ab6004803603602081101561087657600080fd5b5035611a8e565b6103b7611bf6565b61046d6004803603602081101561089b57600080fd5b5035611c57565b6108c8600480360360208110156108b857600080fd5b50356001600160a01b0316611cd0565b604080519485526020850193909352838301919091526060830152519081900360800190f35b6104ab6004803603602081101561090457600080fd5b50356001600160a01b0316611cf7565b6104ab6004803603604081101561092a57600080fd5b506001600160a01b0381351690602001351515611e42565b6104ab6004803603608081101561095857600080fd5b6001600160a01b0382358116926020810135909116916040820135919081019060808101606082013564010000000081111561099357600080fd5b8201836020820111156109a557600080fd5b803590602001918460018302840111640100000000831117156109c757600080fd5b91908080601f016020809104026020016040519081016040528093929190818152602001838380828437600092019190915250929550611f65945050505050565b61046d611fc3565b6103b760048036036020811015610a2657600080fd5b5035611fe7565b61046d6122e0565b6104ab60048036036080811015610a4b57600080fd5b506001600160a01b0381358116916020810135916040820135916060013516612304565b61046d6126e8565b61046d61270c565b61046d612730565b61039b60048036036040811015610a9d57600080fd5b506001600160a01b0381358116916020013516612736565b61046d612764565b6104ab60048036036020811015610ad357600080fd5b50356001600160a01b0316612770565b6104ab60048036036040811015610af957600080fd5b506001600160a01b03813516906020013561289c565b7fffffffff00000000000000000000000000000000000000000000000000000000811660009081526001602052604090205460ff165b919050565b60078054604080516020601f6002600019610100600188161502019095169490940493840181900481028201810190925282815260609390929091830182828015610bd65780601f10610bab57610100808354040283529160200191610bd6565b820191906000526020600020905b815481529060010190602001808311610bb957829003601f168201915b5050505050905090565b6000610beb82612d01565b610c265760405162461bcd60e51b815260040180806020018281038252602c815260200180614388602c913960400191505060405180910390fd5b506000908152600560205260409020546001600160a01b031690565b6000610c4e600d612d0e565b905090565b6000610c5e82611343565b9050806001600160a01b0316836001600160a01b03161415610cb15760405162461bcd60e51b815260040180806020018281038252602181526020018061440c6021913960400191505060405180910390fd5b806001600160a01b0316610cc3612d19565b6001600160a01b03161480610ce45750610ce481610cdf612d19565b612736565b610d1f5760405162461bcd60e51b81526004018080602001828103825260388152602001806142ba6038913960400191505060405180910390fd5b610d298383612d1d565b505050565b6000610c4e6003612d0e565b600081815260116020908152604080832060058101546001600160a01b03168452600c9092528220610d6c8282612da3565b949350505050565b610d85610d7f612d19565b82612e51565b610dc05760405162461bcd60e51b815260040180806020018281038252603181526020018061442d6031913960400191505060405180910390fd5b610d29838383612eed565b7f000000000000000000000000000000000000000000000000000000000000000081565b6001600160a01b0382166000908152600260205260408120610e119083613039565b90505b92915050565b6011602052600090815260409020805460018201546002830154600384015460048501546005860154600690960154949593949293919290916001600160a01b03908116911687565b7f000000000000000000000000000000000000000000000000000000000000000081565b610e8f612d19565b6001600160a01b0316610ea0611a7f565b6001600160a01b031614610efb576040805162461bcd60e51b815260206004820181905260248201527f4f776e61626c653a2063616c6c6572206973206e6f7420746865206f776e6572604482015290519081900360640190fd5b60125415610f50576040805162461bcd60e51b815260206004820152601d60248201527f48463a20436f6e747261637420616c72656164792064697361626c6564000000604482015290519081900360640190fd5b610f5b600d83613045565b610fac576040805162461bcd60e51b815260206004820152601560248201527f48463a204e6f6e2d6578697374616e7420706f6f6c0000000000000000000000604482015290519081900360640190fd5b610fb461130b565b6001600160a01b0382166000908152600c6020526040902054600f54610fe5918391610fdf91612c95565b90612b7b565b600f556001600160a01b0382166000818152600c6020908152604091829020849055815184815291517f2f4ae87a584f00dc35b043dd1c5ac839c1f41cd3a66e834d4e13faa6251634e69281900390910190a25050565b7f000000000000000000000000000000000000000000000000000000000000000081565b610d2983838360405180602001604052806000815250611f65565b7f000000000000000000000000000000000000000000000000000000000000000081565b6110a7612d19565b6001600160a01b03166110b8611a7f565b6001600160a01b031614611113576040805162461bcd60e51b815260206004820181905260248201527f4f776e61626c653a2063616c6c6572206973206e6f7420746865206f776e6572604482015290519081900360640190fd5b600b546001600160a01b031615611171576040805162461bcd60e51b815260206004820152601360248201527f48463a2048525020616c72656164792073657400000000000000000000000000604482015290519081900360640190fd5b306001600160a01b0316816001600160a01b0316638da5cb5b6040518163ffffffff1660e01b815260040160206040518083038186803b1580156111b457600080fd5b505afa1580156111c8573d6000803e3d6000fd5b505050506040513d60208110156111de57600080fd5b50516001600160a01b03161461123b576040805162461bcd60e51b815260206004820152601860248201527f48463a204e6f7420796574206f776e6572206f66204852500000000000000000604482015290519081900360640190fd5b600b80547fffffffffffffffffffffffff0000000000000000000000000000000000000000166001600160a01b0392909216919091179055565b60008061128360038461305a565b509392505050565b611293612d19565b6001600160a01b03166112a4611a7f565b6001600160a01b0316146112ff576040805162461bcd60e51b815260206004820181905260248201527f4f776e61626c653a2063616c6c6572206973206e6f7420746865206f776e6572604482015290519081900360640190fd5b61130881613076565b50565b6000611317600d612d0e565b905060005b8181101561133f57611337611332600d83613039565b6117d4565b60010161131c565b5050565b6000610e148260405180606001604052806029815260200161431c6029913960039190613089565b600081815260116020526040902060028101546113cf576040805162461bcd60e51b815260206004820152601560248201527f48463a206e6f206c6f636b20746f206578706972650000000000000000000000604482015290519081900360640190fd5b4281600201541115611428576040805162461bcd60e51b815260206004820152601f60248201527f48463a206465706f73697420686173206e6f7420657870697265642079657400604482015290519081900360640190fd5b61133f82613096565b60008061145e7f00000000000000000000000000000000000000000000000000000000000000008561317f565b9050600061149f846012546000146114785760125461149a565b7f00000000000000000000000000000000000000000000000000000000000000005b613196565b9050808211156114b457600092505050610e14565b6114de827f0000000000000000000000000000000000000000000000000000000000000000612c95565b915061150a817f0000000000000000000000000000000000000000000000000000000000000000612c95565b905060026115896115796115486115218686612b7b565b7f000000000000000000000000000000000000000000000000000000000000000090612bd5565b6115737f00000000000000000000000000000000000000000000000000000000000000006002612bd5565b90612c95565b6115838486612c95565b90612bd5565b8161159057fe5b0495945050505050565b600a8054604080516020601f6002600019610100600188161502019095169490940493840181900481028201810190925282815260609390929091830182828015610bd65780601f10610bab57610100808354040283529160200191610bd6565b60008080808061160c600d87613039565b6001600160a01b0381166000908152600c60205260409020805460018201546002830154600390930154939a9199509750909550909350915050565b7f000000000000000000000000000000000000000000000000000000000000000081565b60006001600160a01b0382166116b35760405162461bcd60e51b815260040180806020018281038252602a8152602001806142f2602a913960400191505060405180910390fd5b6001600160a01b0382166000908152600260205260409020610e1490612d0e565b6116dc612d19565b6001600160a01b03166116ed611a7f565b6001600160a01b031614611748576040805162461bcd60e51b815260206004820181905260248201527f4f776e61626c653a2063616c6c6572206973206e6f7420746865206f776e6572604482015290519081900360640190fd5b600080546040516001600160a01b03909116907f8be0079c531659141344cd1fd0a4f28419497f9722a3daafe3b4186f6b6457e0908390a3600080547fffffffffffffffffffffffff0000000000000000000000000000000000000000169055565b7f000000000000000000000000000000000000000000000000000000000000000081565b60125481565b6001600160a01b0381166000908152600c60205260409020600181015442116117fd5750611308565b600381015480611814575042600190910155611308565b6000611824836001015442611431565b9050600061184b600f54611845866000015485612bd590919063ffffffff16565b90612c2e565b905060006118598285612c2e565b600286015490915061186b9082612b7b565b6002860155505042600190930192909255505050565b60105481565b600b546001600160a01b031681565b336118a082611343565b6001600160a01b0316146118fb576040805162461bcd60e51b815260206004820152601d60248201527f48463a204d757374206265206f776e657220746f207769746864726177000000604482015290519081900360640190fd5b60008181526011602052604090206002810154158061191e575042816002015411155b8061192b57506000601254115b61197c576040805162461bcd60e51b815260206004820152601860248201527f48463a204465706f736974207374696c6c206c6f636b65640000000000000000604482015290519081900360640190fd5b60058101546001600160a01b03166000818152600c602052604090206119a1826117d4565b60006119ad8483612da3565b90506119ca84600301548360030154612c9590919063ffffffff16565b60038301556119d8856131a5565b60068401546119f0906001600160a01b031682613272565b6119fa338261330b565b8354611a12906001600160a01b0385169033906133e3565b50505060009182525060116020526040812081815560018101829055600281018290556003810182905560048101919091556005810180547fffffffffffffffffffffffff0000000000000000000000000000000000000000908116909155600690910180549091169055565b6000546001600160a01b031690565b33611a9882611343565b6001600160a01b031614611af3576040805162461bcd60e51b815260206004820152601c60248201527f48463a204d757374206265206f776e6572206f66206465706f73697400000000604482015290519081900360640190fd5b600081815260116020908152604080832060058101546001600160a01b03168452600c90925290912060028201548015801590611b305750428111155b15611b4357611b3e84613096565b611b5a565b6005830154611b5a906001600160a01b03166117d4565b6000611b668484612da3565b6000600486015560028401546003860154919250611b9291670de0b6b3a7640000916118459190612bd5565b60018501556006840154611baf906001600160a01b031682613272565b611bb9338261330b565b60408051828152905186917f7ed7f5937b354908f48cf038f68b4342cf1241b17d57850d6f715acc258ba2af919081900360200190a25050505050565b60088054604080516020601f6002600019610100600188161502019095169490940493840181900481028201810190925282815260609390929091830182828015610bd65780601f10610bab57610100808354040283529160200191610bd6565b600081611c6d5750670de0b6b3a7640000610b45565b6000611c798342612c95565b9050611cc97f0000000000000000000000000000000000000000000000000000000000000000610fdf837f0000000000000000000000000000000000000000000000000000000000000000612bd5565b9392505050565b600c6020526000908152604090208054600182015460028301546003909301549192909184565b611cff612d19565b6001600160a01b0316611d10611a7f565b6001600160a01b031614611d6b576040805162461bcd60e51b815260206004820181905260248201527f4f776e61626c653a2063616c6c6572206973206e6f7420746865206f776e6572604482015290519081900360640190fd5b60125415611dc0576040805162461bcd60e51b815260206004820152601d60248201527f48463a20436f6e747261637420616c72656164792064697361626c6564000000604482015290519081900360640190fd5b611dc861130b565b6000611df4427f0000000000000000000000000000000000000000000000000000000000000000611431565b9050611e1182611e0c83670de0b6b3a7640000612c2e565b61330b565b426012556040517f75884cdadc4a89e8b545db800057f06ec7f5338a08183c7ba515f2bfdd9fe1e190600090a15050565b611e4a612d19565b6001600160a01b0316826001600160a01b03161415611eb0576040805162461bcd60e51b815260206004820152601960248201527f4552433732313a20617070726f766520746f2063616c6c657200000000000000604482015290519081900360640190fd5b8060066000611ebd612d19565b6001600160a01b0390811682526020808301939093526040918201600090812091871680825291909352912080547fffffffffffffffffffffffffffffffffffffffffffffffffffffffffffffff001692151592909217909155611f1f612d19565b6001600160a01b03167f17307eab39ab6107e8899845ad3d59bd9653f200f220920489ca2b5937696c318360405180821515815260200191505060405180910390a35050565b611f76611f70612d19565b83612e51565b611fb15760405162461bcd60e51b815260040180806020018281038252603181526020018061442d6031913960400191505060405180910390fd5b611fbd84848484613463565b50505050565b7f000000000000000000000000000000000000000000000000000000000000000081565b6060611ff282612d01565b61202d5760405162461bcd60e51b815260040180806020018281038252602f8152602001806143dd602f913960400191505060405180910390fd5b60008281526009602090815260408083208054825160026001831615610100026000190190921691909104601f8101859004850282018501909352828152929091908301828280156120c05780601f10612095576101008083540402835291602001916120c0565b820191906000526020600020905b8154815290600101906020018083116120a357829003601f168201915b5050505050905060006120d161159a565b90508051600014156120e557509050610b45565b8151156121e25780826040516020018083805190602001908083835b6020831061213e57805182527fffffffffffffffffffffffffffffffffffffffffffffffffffffffffffffffe09092019160209182019101612101565b51815160209384036101000a600019018019909216911617905285519190930192850191508083835b602083106121a457805182527fffffffffffffffffffffffffffffffffffffffffffffffffffffffffffffffe09092019160209182019101612167565b6001836020036101000a0380198251168184511680821785525050505050509050019250505060405160208183030381529060405292505050610b45565b806121ec856134b5565b6040516020018083805190602001908083835b6020831061223c57805182527fffffffffffffffffffffffffffffffffffffffffffffffffffffffffffffffe090920191602091820191016121ff565b51815160209384036101000a600019018019909216911617905285519190930192850191508083835b602083106122a257805182527fffffffffffffffffffffffffffffffffffffffffffffffffffffffffffffffe09092019160209182019101612265565b6001836020036101000a0380198251168184511680821785525050505050509050019250505060405160208183030381529060405292505050919050565b7f000000000000000000000000000000000000000000000000000000000000000081565b60125415612359576040805162461bcd60e51b815260206004820152601d60248201527f48463a20436f6e747261637420616c72656164792064697361626c6564000000604482015290519081900360640190fd5b600083116123ae576040805162461bcd60e51b815260206004820152601a60248201527f48463a204d757374206465706f73697420736f6d657468696e67000000000000604482015290519081900360640190fd5b7f0000000000000000000000000000000000000000000000000000000000000000821115612423576040805162461bcd60e51b815260206004820181905260248201527f48463a20556e6c6f636b2074696d652061667465722072657761726420656e64604482015290519081900360640190fd5b81158061242f57504282115b612480576040805162461bcd60e51b815260206004820152601760248201527f48463a20496e76616c696420756e6c6f636b2074696d65000000000000000000604482015290519081900360640190fd5b61248b600d85613045565b6124dc576040805162461bcd60e51b815260206004820152601560248201527f48463a204e6f6e2d6578697374616e7420706f6f6c0000000000000000000000604482015290519081900360640190fd5b81156125dc5760006124ee8342612c95565b9050807f00000000000000000000000000000000000000000000000000000000000000001115612565576040805162461bcd60e51b815260206004820152601760248201527f48463a204c6f636b2074696d6520746f6f2073686f7274000000000000000000604482015290519081900360640190fd5b7f00000000000000000000000000000000000000000000000000000000000000008111156125da576040805162461bcd60e51b815260206004820152601d60248201527f48463a204c6f636b2074696d652065786365656473206d6178696d756d000000604482015290519081900360640190fd5b505b6001600160a01b0384166000908152600c602052604090206125fd856117d4565b6126126001600160a01b038616333087612af3565b601080546001810190915560008181526011602052604090208581556005810180546001600160a01b03808a167fffffffffffffffffffffffff00000000000000000000000000000000000000009283161790925560068301805492871692909116919091179055612686818488886135c4565b6001600160a01b038416156126d5576040805183815290516001600160a01b038616917f18d55327aabc94c83b9efd0b736e4becf8fa6e0526ac58e30aa045389358248e919081900360200190a25b6126df3383613641565b50505050505050565b7f000000000000000000000000000000000000000000000000000000000000000081565b7f000000000000000000000000000000000000000000000000000000000000000081565b600f5481565b6001600160a01b03918216600090815260066020908152604080832093909416825291909152205460ff1690565b670de0b6b3a764000081565b612778612d19565b6001600160a01b0316612789611a7f565b6001600160a01b0316146127e4576040805162461bcd60e51b815260206004820181905260248201527f4f776e61626c653a2063616c6c6572206973206e6f7420746865206f776e6572604482015290519081900360640190fd5b6001600160a01b0381166128295760405162461bcd60e51b815260040180806020018281038252602681526020018061421e6026913960400191505060405180910390fd5b600080546040516001600160a01b03808516939216917f8be0079c531659141344cd1fd0a4f28419497f9722a3daafe3b4186f6b6457e091a3600080547fffffffffffffffffffffffff0000000000000000000000000000000000000000166001600160a01b0392909216919091179055565b6128a4612d19565b6001600160a01b03166128b5611a7f565b6001600160a01b031614612910576040805162461bcd60e51b815260206004820181905260248201527f4f776e61626c653a2063616c6c6572206973206e6f7420746865206f776e6572604482015290519081900360640190fd5b60125415612965576040805162461bcd60e51b815260206004820152601d60248201527f48463a20436f6e747261637420616c72656164792064697361626c6564000000604482015290519081900360640190fd5b600b546001600160a01b03166129c2576040805162461bcd60e51b815260206004820152601a60248201527f48463a20526566657272616c206e6f7420736574757020796574000000000000604482015290519081900360640190fd5b6129ca61130b565b6129d5600d8361365b565b612a26576040805162461bcd60e51b815260206004820152601a60248201527f48463a204c5020706f6f6c20616c726561647920657869737473000000000000604482015290519081900360640190fd5b6000612a52427f000000000000000000000000000000000000000000000000000000000000000061317f565b600f54909150612a629083612b7b565b600f556040805160808101825283815260208082018481526000838501818152606085018281526001600160a01b038a16808452600c865292879020955186559251600186015551600285015590516003909301929092558251858152925191927f0c98febfffcec480c66a977e13f14bafdb5199ea9603591a0715b0cabe0c3ae2929081900390910190a2505050565b604080516001600160a01b0380861660248301528416604482015260648082018490528251808303909101815260849091019091526020810180517bffffffffffffffffffffffffffffffffffffffffffffffffffffffff167f23b872dd00000000000000000000000000000000000000000000000000000000179052611fbd908590613670565b600082820183811015610e11576040805162461bcd60e51b815260206004820152601b60248201527f536166654d6174683a206164646974696f6e206f766572666c6f770000000000604482015290519081900360640190fd5b600082612be457506000610e14565b82820282848281612bf157fe5b0414610e115760405162461bcd60e51b81526004018080602001828103825260218152602001806143676021913960400191505060405180910390fd5b6000808211612c84576040805162461bcd60e51b815260206004820152601a60248201527f536166654d6174683a206469766973696f6e206279207a65726f000000000000604482015290519081900360640190fd5b818381612c8d57fe5b049392505050565b600082821115612cec576040805162461bcd60e51b815260206004820152601e60248201527f536166654d6174683a207375627472616374696f6e206f766572666c6f770000604482015290519081900360640190fd5b50900390565b6060610d6c8484600085613721565b6000610e1460038361389a565b6000610e14826138a6565b3390565b600081815260056020526040902080547fffffffffffffffffffffffff0000000000000000000000000000000000000000166001600160a01b0384169081179091558190612d6a82611343565b6001600160a01b03167f8c5be1e5ebec7d5bd14f71427d1e84f3dd0314c0f7b2291e5b200ac8c7c3b92560405160405180910390a45050565b600281015460038201546001830154600092919042118015612dc457508015155b15612e15576000612dd9856001015442611431565b90506000612dfa600f54611845886000015485612bd590919063ffffffff16565b9050612e10612e098285612c2e565b8590612b7b565b935050505b612e488560040154610fdf8760010154611573670de0b6b3a7640000611845888c60030154612bd590919063ffffffff16565b95945050505050565b6000612e5c82612d01565b612e975760405162461bcd60e51b815260040180806020018281038252602c81526020018061428e602c913960400191505060405180910390fd5b6000612ea283611343565b9050806001600160a01b0316846001600160a01b03161480612edd5750836001600160a01b0316612ed284610be0565b6001600160a01b0316145b80610d6c5750610d6c8185612736565b826001600160a01b0316612f0082611343565b6001600160a01b031614612f455760405162461bcd60e51b81526004018080602001828103825260298152602001806143b46029913960400191505060405180910390fd5b6001600160a01b038216612f8a5760405162461bcd60e51b81526004018080602001828103825260248152602001806142446024913960400191505060405180910390fd5b612f95838383610d29565b612fa0600082612d1d565b6001600160a01b0383166000908152600260205260409020612fc290826138aa565b506001600160a01b0382166000908152600260205260409020612fe590826138b6565b50612ff2600382846138c2565b5080826001600160a01b0316846001600160a01b03167fddf252ad1be2c89b69c2b068fc378daa952ba7f163c4a11628f55a4df523b3ef60405160405180910390a4505050565b6000610e1183836138d8565b6000610e11836001600160a01b03841661393c565b60008080806130698686613954565b9097909650945050505050565b805161133f90600a9060208401906140e8565b6000610d6c8484846139cf565b600081815260116020908152604080832060058101546001600160a01b0316808552600c90935292206130c8826117d4565b6130d28382612da3565b600484015582546130e684838360006135c4565b600061311e670de0b6b3a7640000611845847f0000000000000000000000000000000000000000000000000000000000000000612bd5565b90506131346001600160a01b03851633836133e3565b61313e8282612c95565b8555604080518281529051879133917f4cdaca29662c1c6939de029e215bbebee084154866a8d05ad150e7503f167d2e9181900360200190a3505050505050565b60008183101561318f5781610e11565b5090919050565b600081831061318f5781610e11565b60006131b082611343565b90506131be81600084610d29565b6131c9600083612d1d565b600082815260096020526040902054600260001961010060018416150201909116041561320757600082815260096020526040812061320791614174565b6001600160a01b038116600090815260026020526040902061322990836138aa565b50613235600383613a99565b5060405182906000906001600160a01b038416907fddf252ad1be2c89b69c2b068fc378daa952ba7f163c4a11628f55a4df523b3ef908390a45050565b6001600160a01b0382161561133f57600b54604080517f1ec8bb8c0000000000000000000000000000000000000000000000000000000081526001600160a01b0385811660048301526024820185905291519190921691631ec8bb8c91604480830192600092919082900301818387803b1580156132ef57600080fd5b505af1158015613303573d6000803e3d6000fd5b505050505050565b60007f00000000000000000000000000000000000000000000000000000000000000006001600160a01b03166370a08231306040518263ffffffff1660e01b815260040180826001600160a01b0316815260200191505060206040518083038186803b15801561337a57600080fd5b505afa15801561338e573d6000803e3d6000fd5b505050506040513d60208110156133a457600080fd5b50519050610d29836133b68484613196565b6001600160a01b037f00000000000000000000000000000000000000000000000000000000000000001691905b604080516001600160a01b038416602482015260448082018490528251808303909101815260649091019091526020810180517bffffffffffffffffffffffffffffffffffffffffffffffffffffffff167fa9059cbb00000000000000000000000000000000000000000000000000000000179052610d29908490613670565b61346e848484612eed565b61347a84848484613aa5565b611fbd5760405162461bcd60e51b81526004018080602001828103825260328152602001806141ec6032913960400191505060405180910390fd5b6060816134f6575060408051808201909152600181527f30000000000000000000000000000000000000000000000000000000000000006020820152610b45565b8160005b811561350e57600101600a820491506134fa565b60008167ffffffffffffffff8111801561352757600080fd5b506040519080825280601f01601f191660200182016040528015613552576020820181803683370190505b50859350905060001982015b83156135bb57600a840660300160f81b8282806001900393508151811061358157fe5b60200101907effffffffffffffffffffffffffffffffffffffffffffffffffffffffffffff1916908160001a905350600a8404935061355e565b50949350505050565b6002840181905560006135ec670de0b6b3a76400006118456135e585611c57565b8690612bd5565b9050613611670de0b6b3a7640000611845866002015484612bd590919063ffffffff16565b60018601556003808601549085015461362f918391610fdf91612c95565b60039485015593909201929092555050565b61133f828260405180602001604052806000815250613c81565b6000610e11836001600160a01b038416613cd3565b60006136c5826040518060400160405280602081526020017f5361666545524332303a206c6f772d6c6576656c2063616c6c206661696c6564815250856001600160a01b0316612cf29092919063ffffffff16565b805190915015610d29578080602001905160208110156136e457600080fd5b5051610d295760405162461bcd60e51b815260040180806020018281038252602a81526020018061445e602a913960400191505060405180910390fd5b6060824710156137625760405162461bcd60e51b81526004018080602001828103825260268152602001806142686026913960400191505060405180910390fd5b61376b85613d1d565b6137bc576040805162461bcd60e51b815260206004820152601d60248201527f416464726573733a2063616c6c20746f206e6f6e2d636f6e7472616374000000604482015290519081900360640190fd5b600080866001600160a01b031685876040518082805190602001908083835b6020831061381857805182527fffffffffffffffffffffffffffffffffffffffffffffffffffffffffffffffe090920191602091820191016137db565b6001836020036101000a03801982511681845116808217855250505050505090500191505060006040518083038185875af1925050503d806000811461387a576040519150601f19603f3d011682016040523d82523d6000602084013e61387f565b606091505b509150915061388f828286613d23565b979650505050505050565b6000610e11838361393c565b5490565b6000610e118383613d89565b6000610e118383613cd3565b6000610d6c84846001600160a01b038516613e4f565b8154600090821061391a5760405162461bcd60e51b81526004018080602001828103825260228152602001806141ca6022913960400191505060405180910390fd5b82600001828154811061392957fe5b9060005260206000200154905092915050565b60009081526001919091016020526040902054151590565b8154600090819083106139985760405162461bcd60e51b81526004018080602001828103825260228152602001806143456022913960400191505060405180910390fd5b60008460000184815481106139a957fe5b906000526020600020906002020190508060000154816001015492509250509250929050565b60008281526001840160205260408120548281613a6a5760405162461bcd60e51b81526004018080602001828103825283818151815260200191508051906020019080838360005b83811015613a2f578181015183820152602001613a17565b50505050905090810190601f168015613a5c5780820380516001836020036101000a031916815260200191505b509250505060405180910390fd5b50846000016001820381548110613a7d57fe5b9060005260206000209060020201600101549150509392505050565b6000610e118383613ee6565b6000613ab9846001600160a01b0316613d1d565b613ac557506001610d6c565b6000613c167f150b7a0200000000000000000000000000000000000000000000000000000000613af3612d19565b88878760405160240180856001600160a01b03168152602001846001600160a01b0316815260200183815260200180602001828103825283818151815260200191508051906020019080838360005b83811015613b5a578181015183820152602001613b42565b50505050905090810190601f168015613b875780820380516001836020036101000a031916815260200191505b5095505050505050604051602081830303815290604052907bffffffffffffffffffffffffffffffffffffffffffffffffffffffff19166020820180517bffffffffffffffffffffffffffffffffffffffffffffffffffffffff83818316178352505050506040518060600160405280603281526020016141ec603291396001600160a01b0388169190612cf2565b90506000818060200190516020811015613c2f57600080fd5b50517fffffffff00000000000000000000000000000000000000000000000000000000167f150b7a02000000000000000000000000000000000000000000000000000000001492505050949350505050565b613c8b8383613fba565b613c986000848484613aa5565b610d295760405162461bcd60e51b81526004018080602001828103825260328152602001806141ec6032913960400191505060405180910390fd5b6000613cdf838361393c565b613d1557508154600181810184556000848152602080822090930184905584548482528286019093526040902091909155610e14565b506000610e14565b3b151590565b60608315613d32575081611cc9565b825115613d425782518084602001fd5b60405162461bcd60e51b8152602060048201818152845160248401528451859391928392604401919085019080838360008315613a2f578181015183820152602001613a17565b60008181526001830160205260408120548015613e455783546000198083019190810190600090879083908110613dbc57fe5b9060005260206000200154905080876000018481548110613dd957fe5b600091825260208083209091019290925582815260018981019092526040902090840190558654879080613e0957fe5b60019003818190600052602060002001600090559055866001016000878152602001908152602001600020600090556001945050505050610e14565b6000915050610e14565b600082815260018401602052604081205480613eb4575050604080518082018252838152602080820184815286546001818101895560008981528481209551600290930290950191825591519082015586548684528188019092529290912055611cc9565b82856000016001830381548110613ec757fe5b9060005260206000209060020201600101819055506000915050611cc9565b60008181526001830160205260408120548015613e455783546000198083019190810190600090879083908110613f1957fe5b9060005260206000209060020201905080876000018481548110613f3957fe5b600091825260208083208454600290930201918255600193840154918401919091558354825289830190526040902090840190558654879080613f7857fe5b6000828152602080822060026000199094019384020182815560019081018390559290935588815289820190925260408220919091559450610e149350505050565b6001600160a01b038216614015576040805162461bcd60e51b815260206004820181905260248201527f4552433732313a206d696e7420746f20746865207a65726f2061646472657373604482015290519081900360640190fd5b61401e81612d01565b15614070576040805162461bcd60e51b815260206004820152601c60248201527f4552433732313a20746f6b656e20616c7265616479206d696e74656400000000604482015290519081900360640190fd5b61407c60008383610d29565b6001600160a01b038216600090815260026020526040902061409e90826138b6565b506140ab600382846138c2565b5060405181906001600160a01b038416906000907fddf252ad1be2c89b69c2b068fc378daa952ba7f163c4a11628f55a4df523b3ef908290a45050565b828054600181600116156101000203166002900490600052602060002090601f01602090048101928261411e5760008555614164565b82601f1061413757805160ff1916838001178555614164565b82800160010185558215614164579182015b82811115614164578251825591602001919060010190614149565b506141709291506141b4565b5090565b50805460018160011615610100020316600290046000825580601f1061419a5750611308565b601f01602090049060005260206000209081019061130891905b5b8082111561417057600081556001016141b556fe456e756d657261626c655365743a20696e646578206f7574206f6620626f756e64734552433732313a207472616e7366657220746f206e6f6e20455243373231526563656976657220696d706c656d656e7465724f776e61626c653a206e6577206f776e657220697320746865207a65726f20616464726573734552433732313a207472616e7366657220746f20746865207a65726f2061646472657373416464726573733a20696e73756666696369656e742062616c616e636520666f722063616c6c4552433732313a206f70657261746f7220717565727920666f72206e6f6e6578697374656e7420746f6b656e4552433732313a20617070726f76652063616c6c6572206973206e6f74206f776e6572206e6f7220617070726f76656420666f7220616c6c4552433732313a2062616c616e636520717565727920666f7220746865207a65726f20616464726573734552433732313a206f776e657220717565727920666f72206e6f6e6578697374656e7420746f6b656e456e756d657261626c654d61703a20696e646578206f7574206f6620626f756e6473536166654d6174683a206d756c7469706c69636174696f6e206f766572666c6f774552433732313a20617070726f76656420717565727920666f72206e6f6e6578697374656e7420746f6b656e4552433732313a207472616e73666572206f6620746f6b656e2074686174206973206e6f74206f776e4552433732314d657461646174613a2055524920717565727920666f72206e6f6e6578697374656e7420746f6b656e4552433732313a20617070726f76616c20746f2063757272656e74206f776e65724552433732313a207472616e736665722063616c6c6572206973206e6f74206f776e6572206e6f7220617070726f7665645361666545524332303a204552433230206f7065726174696f6e20646964206e6f742073756363656564a2646970667358221220cc96a74cf5f88cfd57a69a67337e9ade5b14cc38e825acf9903aad6c3bc89f9364736f6c63430007060033416464726573733a20696e73756666696369656e742062616c616e636520666f722063616c6c536166654d6174683a206d756c7469706c69636174696f6e206f766572666c6f775361666545524332303a204552433230206f7065726174696f6e20646964206e6f742073756363656564",
  "immutableReferences": {
    "75": [
      {
        "length": 32,
        "start": 4221
      },
      {
        "length": 32,
        "start": 13071
      },
      {
        "length": 32,
        "start": 13248
      }
    ],
    "93": [
      {
        "length": 32,
        "start": 5411
      },
      {
        "length": 32,
        "start": 8133
      }
    ],
    "95": [
      {
        "length": 32,
        "start": 5453
      },
      {
        "length": 32,
        "start": 9962
      }
    ],
    "97": [
      {
        "length": 32,
        "start": 8930
      },
      {
        "length": 32,
        "start": 9459
      }
    ],
    "99": [
      {
        "length": 32,
        "start": 9575
      },
      {
        "length": 32,
        "start": 9998
      }
    ],
    "101": [
      {
        "length": 32,
        "start": 5177
      },
      {
        "length": 32,
        "start": 5306
      },
      {
        "length": 32,
        "start": 5350
      },
      {
        "length": 32,
        "start": 6060
      },
      {
        "length": 32,
        "start": 10798
      }
    ],
    "103": [
      {
        "length": 32,
        "start": 3685
      },
      {
        "length": 32,
        "start": 5242
      },
      {
        "length": 32,
        "start": 7632
      },
      {
        "length": 32,
        "start": 9136
      }
    ],
    "105": [
      {
        "length": 32,
        "start": 5706
      },
      {
        "length": 32,
        "start": 7333
      }
    ],
    "107": [
      {
        "length": 32,
        "start": 4158
      },
      {
        "length": 32,
        "start": 7296
      }
    ],
    "109": [
      {
        "length": 32,
        "start": 3533
      },
      {
        "length": 32,
        "start": 12538
      }
    ]
  },
  "source": "// SPDX-License-Identifier: GPL-3.0-only\npragma solidity 0.7.6;\n\nimport \"@openzeppelin/contracts/token/ERC721/ERC721.sol\";\nimport \"@openzeppelin/contracts/token/ERC20/IERC20.sol\";\nimport \"@openzeppelin/contracts/token/ERC20/SafeERC20.sol\";\nimport \"@openzeppelin/contracts/utils/EnumerableSet.sol\";\nimport \"@openzeppelin/contracts/math/SafeMath.sol\";\nimport \"@openzeppelin/contracts/math/Math.sol\";\nimport \"@openzeppelin/contracts/access/Ownable.sol\";\nimport \"./ReferralRewarder.sol\";\n\n// Forked from sushiswap's MasterChef contract\ncontract HoneyFarm is Ownable, ERC721 {\n    using SafeMath for uint256;\n    using SafeERC20 for IERC20;\n    using EnumerableSet for EnumerableSet.AddressSet;\n\n    // Info of each deposit\n    struct DepositInfo {\n        uint256 amount; // How many LP tokens the user has provided.\n        uint256 rewardDebt; // Reward debt (value of accumulator)\n        uint256 unlockTime;\n        uint256 rewardShare;\n        uint256 setRewards;\n        IERC20 pool;\n        address referrer;\n    }\n\n    // Info of each pool.\n    struct PoolInfo {\n        uint256 allocation; // How many allocation points assigned to this pool.\n        /* Last block timestamp that HSFs distribution occured, initially set\n           to the startTime. */\n        uint256 lastRewardTimestamp;\n        uint256 accHsfPerShare; // Accumulated HSFs per share, times SCALE.\n        uint256 totalShares; // total shares stored in pool\n    }\n\n    // What fractional numbers are scaled by\n    uint256 public constant SCALE = 1e18;\n    // The HoneySwap Farm token\n    IERC20 public immutable hsf;\n    // referral points token to keep track of referrals\n    ReferralRewarder public referralRewarder;\n    // Info of each pool.\n    mapping(IERC20 => PoolInfo) public poolInfo;\n    // set of running pools\n    EnumerableSet.AddressSet internal pools;\n    // Total allocation points. Must be the sum of all allocation points in all pools.\n    uint256 public totalAllocationPoints;\n    // total deposits\n    uint256 public totalDeposits;\n    // data about infdividual deposits\n    mapping(uint256 => DepositInfo) public depositInfo;\n    // the negative slope of the distribution line scaled by SCALE, how much\n    // less is being distributed per unit of time.\n    uint256 public immutable distributionSlope;\n    // starting distribution rate / unit time scaled by SCALE\n    uint256 public immutable startDistribution;\n    // minimum time someone can lock their liquidity for\n    uint256 public immutable minTimeLock;\n    // maximum time someone can lock their liquidity for\n    uint256 public immutable maxTimeLock;\n    // time at which coins begin being distributed\n    uint256 public immutable startTime;\n    // time at which coins finish being distributed\n    uint256 public immutable endTime;\n    // multiplier for time locked deposits / second locked scaled by SCALE\n    uint256 public immutable timeLockMultiplier;\n    // constant added to the timeLockMultiplier scaled by SCALE\n    uint256 public immutable timeLockConstant;\n    /* One time fee that is deducted from time-locked deposits given to whoever\n       downgrades it, scaled by SCALE */\n    uint256 public immutable downgradeFee;\n    // whether this contract has been disabled\n    uint256 public contractDisabledAt;\n\n    event PoolAdded(IERC20 indexed poolToken, uint256 allocation);\n    /* fired when pool parameters are updated not when the updatePool() method\n       is called */\n    event PoolUpdated(IERC20 indexed poolToken, uint256 allocation);\n    event Disabled();\n    event DepositDowngraded(\n        address indexed downgrader,\n        uint256 indexed depositId,\n        uint256 downgradeReward\n    );\n    event Referred(address indexed referrer, uint256 depositId);\n    event RewardsWithdraw(uint256 indexed depositId, uint256 rewardAmount);\n\n    // parameters passed as byte strings to mitigate stack too deep error\n    constructor(\n        IERC20 _hsf,\n        // uint256 _startTime,\n        // uint256 _endTime,\n        // uint256 _totalHsfToDistribute,\n        // uint256 _endDistributionFraction,\n        // uint256 _minTimeLock,\n        // uint256 _maxTimeLock,\n        // uint256 _timeLockMultiplier,\n        // uint256 _timeLockConstant,\n        // uint256 _downgradeFee\n        uint256[9] memory _parameters\n    ) ERC721(\"HoneyFarm Deposits v1\", \"HFD\") {\n        uint256 _startTime = _parameters[0];\n        uint256 _endTime = _parameters[1];\n        require(_endTime > _startTime, \"HF: endTime before startTime\");\n        uint256 _totalHsfToDistribute = _parameters[2];\n        uint256 _endDistributionFraction = _parameters[3];\n        hsf = _hsf;\n        startTime = _startTime;\n        endTime = _endTime;\n        _hsf.safeTransferFrom(msg.sender, address(this), _totalHsfToDistribute);\n\n        /* check readme at github.com/1Hive/honeyswap-farm for a breakdown of\n           the maths */\n        // ds = (2 * s) / (te * (r + 1))\n        uint256 startDistribution_ = _totalHsfToDistribute\n            .mul(2)\n            .mul(SCALE)\n            .mul(SCALE)\n            .div(\n                (_endTime - _startTime).mul(_endDistributionFraction.add(SCALE))\n            );\n        // -m = ds * (1 - r) / te\n        distributionSlope = startDistribution_\n            .mul(SCALE.sub(_endDistributionFraction))\n            .div((_endTime - _startTime).mul(SCALE));\n        startDistribution = startDistribution_;\n\n        uint256 _minTimeLock = _parameters[4];\n        uint256 _maxTimeLock = _parameters[5];\n        require(_minTimeLock < _maxTimeLock, \"HF: invalid lock limits\");\n        minTimeLock = _minTimeLock;\n        maxTimeLock = _maxTimeLock;\n        timeLockMultiplier = _parameters[6];\n        timeLockConstant = _parameters[7];\n        downgradeFee = _parameters[8];\n    }\n\n    modifier notDisabled {\n        require(contractDisabledAt == 0, \"HF: Contract already disabled\");\n        _;\n    }\n\n    function poolLength() external view returns (uint256) {\n        return pools.length();\n    }\n\n    function getPoolByIndex(uint256 _index)\n        external\n        view\n        returns(\n            IERC20 poolToken,\n            uint256 allocation,\n            uint256 lastRewardTimestamp,\n            uint256 accHsfPerShare,\n            uint256 totalShares\n        )\n    {\n        poolToken = IERC20(pools.at(_index));\n        PoolInfo storage pool = poolInfo[poolToken];\n        allocation = pool.allocation;\n        lastRewardTimestamp = pool.lastRewardTimestamp;\n        accHsfPerShare = pool.accHsfPerShare;\n        totalShares = pool.totalShares;\n    }\n\n    // underscore placed after to avoid collide with the ERC721._baseURI property\n    function setBaseURI(string memory baseURI_) external onlyOwner {\n        _setBaseURI(baseURI_);\n    }\n\n    function disableContract(address _tokenRecipient)\n        external\n        onlyOwner\n        notDisabled\n    {\n        massUpdatePools();\n        uint256 remainingTokens = getDistribution(block.timestamp, endTime);\n        _safeHsfTransfer(_tokenRecipient, remainingTokens.div(SCALE));\n        contractDisabledAt = block.timestamp;\n        emit Disabled();\n    }\n\n    // Add a new lp to the pool. Can only be called by the owner.\n    function add(\n        IERC20 _lpToken,\n        uint256 _allocation\n    ) public onlyOwner notDisabled {\n        require(\n            address(referralRewarder) != address(0),\n            \"HF: Referral not setup yet\"\n        );\n        massUpdatePools();\n        require(pools.add(address(_lpToken)), \"HF: LP pool already exists\");\n        uint256 lastRewardTimestamp = Math.max(block.timestamp, startTime);\n        totalAllocationPoints = totalAllocationPoints.add(_allocation);\n        poolInfo[_lpToken] = PoolInfo({\n            allocation: _allocation,\n            lastRewardTimestamp: lastRewardTimestamp,\n            accHsfPerShare: 0,\n            totalShares: 0\n        });\n        emit PoolAdded(_lpToken, _allocation);\n    }\n\n    // Update the given pool's allocation point. Can only be called by the owner.\n    function set(\n        IERC20 _poolToken,\n        uint256 _allocation\n    ) public onlyOwner notDisabled {\n        require(pools.contains(address(_poolToken)), \"HF: Non-existant pool\");\n        massUpdatePools();\n        totalAllocationPoints = totalAllocationPoints\n            .sub(poolInfo[_poolToken].allocation)\n            .add(_allocation);\n        poolInfo[_poolToken].allocation = _allocation;\n        emit PoolUpdated(_poolToken, _allocation);\n    }\n\n    // get tokens to be distributed between two timestamps scaled by SCALE\n    function getDistribution(uint256 _from, uint256 _to)\n        public\n        view\n        returns (uint256)\n    {\n        uint256 from = Math.max(startTime, _from);\n        uint256 to = Math.min(_to, contractDisabledAt == 0 ? endTime : contractDisabledAt);\n\n        if (from > to) return uint256(0);\n\n        from = from.sub(startTime);\n        to = to.sub(startTime);\n\n        /* check readme at github.com/1Hive/honeyswap-farm for a breakdown of\n           the maths */\n        // d(t1, t2) = (t2 - t1) * (2 * ds - (-m) * (t2 + t1)) / 2\n        return to.sub(from).mul(\n            startDistribution.mul(2).sub(distributionSlope.mul(from.add(to)))\n        ) / 2;\n    }\n\n    function getTimeMultiple(uint256 _unlockTime) public view returns(uint256) {\n        if (_unlockTime == 0) return SCALE;\n        uint256 timeDelta = _unlockTime.sub(block.timestamp);\n        return timeDelta.mul(timeLockMultiplier).add(timeLockConstant);\n    }\n\n    // View function to see pending HSFs on frontend.\n    function pendingHsf(uint256 _depositId)\n        external\n        view\n        returns (uint256)\n    {\n        DepositInfo storage deposit = depositInfo[_depositId];\n        PoolInfo storage pool = poolInfo[deposit.pool];\n        return _getPendingHsf(deposit, pool);\n    }\n\n    // Deposit LP tokens into the farm to earn HSF\n    function createDeposit(\n        IERC20 _poolToken,\n        uint256 _amount,\n        uint256 _unlockTime,\n        address _referrer\n    )\n        external notDisabled\n    {\n        require(_amount > 0, \"HF: Must deposit something\");\n        require(_unlockTime <= endTime, \"HF: Unlock time after reward end\");\n        require(\n            _unlockTime == 0 || _unlockTime > block.timestamp,\n            \"HF: Invalid unlock time\"\n        );\n        require(pools.contains(address(_poolToken)), \"HF: Non-existant pool\");\n        if (_unlockTime != 0) {\n            uint256 lockDuration = _unlockTime.sub(block.timestamp);\n            require(minTimeLock <= lockDuration, \"HF: Lock time too short\");\n            require(lockDuration <= maxTimeLock, \"HF: Lock time exceeds maximum\");\n        }\n        PoolInfo storage pool = poolInfo[_poolToken];\n        updatePool(_poolToken);\n        _poolToken.safeTransferFrom(\n            address(msg.sender),\n            address(this),\n            _amount\n        );\n        uint256 newDepositId = totalDeposits++;\n        DepositInfo storage newDeposit = depositInfo[newDepositId];\n        newDeposit.amount = _amount;\n        newDeposit.pool = _poolToken;\n        newDeposit.referrer = _referrer;\n        _resetRewardAccs(newDeposit, pool, _amount, _unlockTime);\n        if (_referrer != address(0)) {\n            emit Referred(_referrer, newDepositId);\n        }\n        _safeMint(msg.sender, newDepositId);\n    }\n\n    // Withdraw LP tokens from HoneyFarm along with reward\n    function closeDeposit(uint256 _depositId) external {\n        require(ownerOf(_depositId) == msg.sender, \"HF: Must be owner to withdraw\");\n        DepositInfo storage deposit = depositInfo[_depositId];\n        require(\n            deposit.unlockTime == 0 ||\n            deposit.unlockTime <= block.timestamp ||\n            contractDisabledAt > 0,\n            \"HF: Deposit still locked\"\n        );\n        IERC20 poolToken = deposit.pool;\n        PoolInfo storage pool = poolInfo[poolToken];\n        updatePool(poolToken);\n\n        uint256 pending = _getPendingHsf(deposit, pool);\n        pool.totalShares = pool.totalShares.sub(deposit.rewardShare);\n        _burn(_depositId);\n        _rewardReferrer(deposit.referrer, pending);\n        _safeHsfTransfer(msg.sender, pending);\n        poolToken.safeTransfer(msg.sender, deposit.amount);\n        delete depositInfo[_depositId];\n    }\n\n    function setReferralRewarder(address _referralRewarder) external onlyOwner {\n        require(address(referralRewarder) == address(0), \"HF: HRP already set\");\n        require(\n            Ownable(_referralRewarder).owner() == address(this),\n            \"HF: Not yet owner of HRP\"\n        );\n        referralRewarder = ReferralRewarder(_referralRewarder);\n    }\n\n    function withdrawRewards(uint256 _depositId) external {\n        require(ownerOf(_depositId) == msg.sender, \"HF: Must be owner of deposit\");\n        DepositInfo storage deposit = depositInfo[_depositId];\n        PoolInfo storage pool = poolInfo[deposit.pool];\n        uint256 _unlockTime = deposit.unlockTime;\n        if (_unlockTime > 0 && _unlockTime <= block.timestamp) {\n            _downgradeExpired(_depositId);\n        } else {\n            updatePool(deposit.pool);\n        }\n        uint256 pendingRewards = _getPendingHsf(deposit, pool);\n        deposit.setRewards = uint256(0);\n        deposit.rewardDebt = deposit.rewardShare.mul(pool.accHsfPerShare).div(SCALE);\n        _rewardReferrer(deposit.referrer, pendingRewards);\n        _safeHsfTransfer(msg.sender, pendingRewards);\n        emit RewardsWithdraw(_depositId, pendingRewards);\n    }\n\n    function downgradeExpired(uint256 _depositId) public {\n        DepositInfo storage deposit = depositInfo[_depositId];\n        require(deposit.unlockTime > 0, \"HF: no lock to expire\");\n        require(\n            deposit.unlockTime <= block.timestamp,\n            \"HF: deposit has not expired yet\"\n        );\n        _downgradeExpired(_depositId);\n    }\n\n    // Update reward variables for all pools. Be careful of gas spending!\n    function massUpdatePools() public {\n        uint256 length = pools.length();\n        for (uint256 pid = 0; pid < length; pid++) {\n            updatePool(IERC20(pools.at(pid)));\n        }\n    }\n\n    // Update reward variables of the given pool to be up-to-date.\n    function updatePool(IERC20 _poolToken) public {\n        PoolInfo storage pool = poolInfo[_poolToken];\n        if (block.timestamp <= pool.lastRewardTimestamp) {\n            return;\n        }\n        uint256 totalShares = pool.totalShares;\n        if (totalShares == 0) {\n            pool.lastRewardTimestamp = block.timestamp;\n            return;\n        }\n        uint256 dist = getDistribution(pool.lastRewardTimestamp, block.timestamp);\n        uint256 hsfReward = dist.mul(pool.allocation).div(totalAllocationPoints);\n        uint256 poolScaledRewards = hsfReward.div(totalShares);\n        pool.accHsfPerShare = pool.accHsfPerShare.add(poolScaledRewards);\n        pool.lastRewardTimestamp = block.timestamp;\n    }\n\n    function _rewardReferrer(address _referrer, uint256 _reward) internal {\n        if (_referrer != address(0)) {\n            referralRewarder.distributeReward(_referrer, _reward);\n        }\n    }\n\n    function _downgradeExpired(uint256 _depositId) internal {\n        DepositInfo storage deposit = depositInfo[_depositId];\n        IERC20 poolToken = deposit.pool;\n        PoolInfo storage pool = poolInfo[poolToken];\n        updatePool(poolToken);\n        deposit.setRewards = _getPendingHsf(deposit, pool);\n        uint256 amount = deposit.amount;\n        _resetRewardAccs(deposit, pool, amount, 0);\n        uint256 downgradeReward = amount.mul(downgradeFee).div(SCALE);\n        poolToken.safeTransfer(msg.sender, downgradeReward);\n        deposit.amount = amount.sub(downgradeReward);\n        emit DepositDowngraded(msg.sender, _depositId, downgradeReward);\n    }\n\n    function _getPendingHsf(\n        DepositInfo storage _deposit,\n        PoolInfo storage _pool\n    )\n        internal\n        view\n        returns(uint256)\n    {\n        uint256 accHsfPerShare = _pool.accHsfPerShare;\n        uint256 totalShares = _pool.totalShares;\n        if (block.timestamp > _pool.lastRewardTimestamp && totalShares != 0) {\n            uint256 dist = getDistribution(_pool.lastRewardTimestamp, block.timestamp);\n            uint256 hsfReward = dist.mul(_pool.allocation).div(totalAllocationPoints);\n            accHsfPerShare = accHsfPerShare.add(hsfReward.div(totalShares));\n        }\n        return _deposit.rewardShare.mul(accHsfPerShare).div(SCALE).sub(\n            _deposit.rewardDebt\n        ).add(_deposit.setRewards);\n    }\n\n    function _resetRewardAccs(\n        DepositInfo storage _deposit,\n        PoolInfo storage _pool,\n        uint256 _amount,\n        uint256 _unlockTime\n    )\n        internal\n    {\n        _deposit.unlockTime = _unlockTime;\n        uint256 newShares = _amount.mul(getTimeMultiple(_unlockTime)).div(SCALE);\n        _deposit.rewardDebt = newShares.mul(_pool.accHsfPerShare).div(SCALE);\n        _pool.totalShares = _pool.totalShares.sub(_deposit.rewardShare).add(newShares);\n        _deposit.rewardShare = newShares;\n    }\n\n    /* Safe hsf transfer function, just in case if rounding error causes pool\n       to not have enough HSFs. */\n    function _safeHsfTransfer(address _to, uint256 _amount) internal {\n        uint256 hsfBal = hsf.balanceOf(address(this));\n        hsf.safeTransfer(_to, Math.min(_amount, hsfBal));\n    }\n}\n",
  "sourcePath": "/home/omnee/Work/1hive/honeycomb/honeyswap-farm/contracts/HoneyFarm.sol",
  "compiler": {
    "name": "solc",
    "version": "0.7.6+commit.7338295f.Emscripten.clang"
  },
  "schemaVersion": "3.3.4",
  "updatedAt": "2021-05-09T12:19:37.469Z",
  "devdoc": {
    "kind": "dev",
    "methods": {
      "approve(address,uint256)": {
        "details": "See {IERC721-approve}."
      },
      "balanceOf(address)": {
        "details": "See {IERC721-balanceOf}."
      },
      "baseURI()": {
        "details": "Returns the base URI set via {_setBaseURI}. This will be automatically added as a prefix in {tokenURI} to each token's URI, or to the token ID if no specific URI is set for that token ID."
      },
      "getApproved(uint256)": {
        "details": "See {IERC721-getApproved}."
      },
      "isApprovedForAll(address,address)": {
        "details": "See {IERC721-isApprovedForAll}."
      },
      "name()": {
        "details": "See {IERC721Metadata-name}."
      },
      "owner()": {
        "details": "Returns the address of the current owner."
      },
      "ownerOf(uint256)": {
        "details": "See {IERC721-ownerOf}."
      },
      "renounceOwnership()": {
        "details": "Leaves the contract without owner. It will not be possible to call `onlyOwner` functions anymore. Can only be called by the current owner. NOTE: Renouncing ownership will leave the contract without an owner, thereby removing any functionality that is only available to the owner."
      },
      "safeTransferFrom(address,address,uint256)": {
        "details": "See {IERC721-safeTransferFrom}."
      },
      "safeTransferFrom(address,address,uint256,bytes)": {
        "details": "See {IERC721-safeTransferFrom}."
      },
      "setApprovalForAll(address,bool)": {
        "details": "See {IERC721-setApprovalForAll}."
      },
      "supportsInterface(bytes4)": {
        "details": "See {IERC165-supportsInterface}. Time complexity O(1), guaranteed to always use less than 30 000 gas."
      },
      "symbol()": {
        "details": "See {IERC721Metadata-symbol}."
      },
      "tokenByIndex(uint256)": {
        "details": "See {IERC721Enumerable-tokenByIndex}."
      },
      "tokenOfOwnerByIndex(address,uint256)": {
        "details": "See {IERC721Enumerable-tokenOfOwnerByIndex}."
      },
      "tokenURI(uint256)": {
        "details": "See {IERC721Metadata-tokenURI}."
      },
      "totalSupply()": {
        "details": "See {IERC721Enumerable-totalSupply}."
      },
      "transferFrom(address,address,uint256)": {
        "details": "See {IERC721-transferFrom}."
      },
      "transferOwnership(address)": {
        "details": "Transfers ownership of the contract to a new account (`newOwner`). Can only be called by the current owner."
      }
    },
    "version": 1
  },
  "userdoc": {
    "kind": "user",
    "methods": {},
    "version": 1
  }
}